:020000040800F2
:10000000A014002001010008090100080B010008EC
:100010000D0100080F010008110100080000000098
:1000200000000000000000000000000013010008B4
:1000300015010008000000001701000821650008F4
:100040001B0100081B0100081B0100081B01000820
:100050001B0100081B0100081B0100081B01000810
:100060001B0100081B0100081B0100081B01000800
:100070001B0100081B0100081B0100081B010008F0
:100080001B0100081B0100081B0100089B6A0008F7
:10009000956B00081B0100081B0100081B010008EC
:1000A0001B0100081B0100081B0100081B010008C0
:1000B0001B0100081B0100081B0100081B010008B0
:1000C0001B0100081B0100081B0100081B010008A0
:1000D0001B010008B16800081B010008B96800088E
:1000E0001B0100081B0100081B010008DFF80CD0F1
:1000F00000F002FC004800477D750008A0140020B5
:100100000648804706480047FEE7FEE7FEE7FEE7B1
:10011000FEE7FEE7FEE7FEE7FEE7FEE745650008CF
:10012000ED000008F0B480EA0102D40F4200B2EB07
:10013000410F02D20246084611464A0042D0C30D82
:10014000DDB2C1F3C752AD1A202D35DAC1F3160165
:1001500041F4000204B15242C5F1200602FA06F150
:100160002A411044B3EBD05F23D0C4B1012DA0EBE2
:10017000C35009DCF0BC4FF0004202EAC352DBB2CC
:1001800000F5000000F058BA400000F1807000EB6C
:10019000C350A0F1807040EAD170490009E04908DD
:1001A00041EAC071A0EBC35000F50000400800EB2D
:1001B000C350F0BC00F037BA6142012202EB4101AA
:1001C000001BF6E7F0BC704781F00041AAE780F021
:1001D0000040A7E780EA010210B502F000434000AA
:1001E00022D04A001FD0010E01EB1261C0F356006D
:1001F000C2F3560240F4000042F40002A0FB0220C9
:1002000000047F39140400D0401C50EA124001D48D
:100210004000491EC2B20C0604EBD010401C40083E
:10022000802A02D003E0002010BD20F00100002948
:1002300000DA0020184310BD30B480EA010202F059
:10024000004530F0004221F0004013D090B1C30DC2
:10025000D40DC2F31601C0F31600E41A41F40001F4
:1002600040F400027D34914201D3641C00E0490057
:10027000002C02DA30BC002070474FF4000000234D
:10028000914201D3891A034340084FEA4101F7D153
:1002900051B1914202D14FF0004105E002D24FF03E
:1002A000010101E06FF0010103EBC450284430BCB0
:1002B00000F0B9B92DE9FE4F804681EA0300C00F76
:1002C0000C46009021F0004123F00045B8EB0200FD
:1002D000A94105D24046214690461C460B4602469F
:1002E00023F00040104347D0270DC7F30A00C3F3A3
:1002F0000A510290401A019040286BDAC3F31300B0
:1003000040F4801B0098924620B10023D2EB030AF0
:1003100063EB0B0B01985946C0F14002504600F0C8
:1003200061F906460D4650465946019A00F069F9B2
:1003300010EB08006141002487EA115284EAE77358
:100340001A4340D0009A62B3019A012A4FEA075239
:1003500015DC001B61EB02014FF0004202EA07527C
:10036000CDE90042001C41F5801132462B4600F0D9
:100370009EF903B0BDE8F08F40462146F9E7001B27
:1003800061EB0201001C41F5801300185B4120184D
:10039000A2F5001747EB030140EAD570B6196D418D
:1003A00011E06D084FEA360645EAC0754FEA07527C
:1003B000001B61EB0201001C41F5801149084FEA66
:1003C00030000019514132462B4603B0BDE8F04FD2
:1003D00000F060B90098012240000023D0EB020237
:1003E00063EBE073009821464FEAE074B8EB00003D
:1003F00061EB0401E9E783F000435BE781F0004132
:1004000058E72DE9FE4F81EA030404F0004421F08F
:10041000004100944FF0000B23F0004350EA010428
:100420005ED052EA03045BD0C3F30A54C1F30A5509
:100430002C44A4F2F3340194A0FB0254C1F3130141
:1004400041F48011C3F3130343F4801301FB02440E
:1004500000FB034E840A970A44EA815447EA835713
:10046000A4FB076802958D0A05FB07854FEA932CCC
:1004700004FB0C542705029D4FEA065847EA16373D
:10048000B5EB08056EEB070C870E920E47EA811755
:1004900042EA8312A7FB0201B6EB0B0164EB0004F6
:1004A0002B0D43EA0C335E1844EB1C50DA465146E0
:1004B000E7FB0201C5F313044FEA0B3343EA14537D
:1004C0004FEA0432019C43EA0603A4F10C040294AF
:1004D000009CCDE900B400F0EAF803B0BDE8F08F6D
:1004E00000200146F9E7C10F80EAE0700844CA071E
:1004F0009623002100F0A0B896230022114600F0B8
:100500009BB800F0004220F00040C10DC0F316007F
:1005100040F400007F2901DA00207047962903DCAF
:10052000C1F19601C84001E096398840002AF4D014
:100530004042704720F00040C10DC0F3160040F467
:1005400000007F2901DA00207047962903DCC1F101
:100550009601C840704796398840704700F00042C5
:1005600030F000400AD0C10D01F56071C0F31600F3
:1005700042EA0151C208400711437047002001467A
:10058000704701F0004330B421F0004150EA01020D
:1005900006D00A0DA2F56072C1F31301002A02DC35
:1005A00030BC00207047440F44EAC104C100E01889
:1005B00030BC00EBC25000F036B80000002801DB70
:1005C000C0F10040002901DBC1F1004181427047C8
:1005D000002801DBC0F10040002901DBC1F100412E
:1005E00088427047202A04DB203A00FA02F10020FA
:1005F00070479140C2F1200320FA03F31943904061
:100600007047202A06DBCB17203A41FA02F043EA72
:10061000E07306E041FA02F3D040C2F120029140BB
:100620000843194670470029A8BF7047401C49007D
:1006300008BF20F00100704710B4B0FA80FC00FA47
:100640000CF050EA010404BF10BC704749B1CCF172
:10065000200421FA04F411FA0CF118BF01212143FE
:100660000843A3EB0C01CB1D4FEA00614FEA1020B9
:1006700042BF002010BC704700EBC350104400295B
:10068000A4BF10BC7047401C490008BF20F0010007
:1006900010BC704710B5002B08DA401C41F1000176
:1006A00092185B411A4301D120F0010010BD2DE9E1
:1006B000F04D92469B4611B1B1FA81F202E0B0FAD8
:1006C00080F220329046FFF78DFF04460F4640EA45
:1006D0000A0041EA0B0153465A46084313D011461B
:1006E00053EA010019D0C8F14002504600F016F953
:1006F00005460E46504659464246FFF773FF0843EB
:1007000005D0012004E020463946BDE8F08D0020E8
:10071000054346EAE0762C4337430A986305E40A2A
:10072000A0EB08000022FD0A44EA47540A3002D533
:1007300000200146E9E7010510196941DDE9084596
:1007400000196941BDE8F04DA4E72DE9F04D81EABB
:10075000030404F0004B21F0004514464FF0000A5A
:1007600023F0004150EA050220D054EA01021DD0D6
:10077000C5F30A570246C5F31303C1F31300C1F3CF
:100780000A5640F4801543F48013A7EB0608101BAB
:10079000D64608F2FD3873EB050002D308F10108D4
:1007A00001E092185B41B8F1000F03DA0020014626
:1007B000BDE8F08D00204FF48011064684460EE01F
:1007C000171B73EB050705D3121B63EB05030643E9
:1007D0004CEA010C49084FEA300092185B4150EA9C
:1007E0000107EDD152EA030012D082EA040083EA45
:1007F0000501084305D0101BAB4106D2012200239E
:1008000006E000224FF0004302E06FF001025310B7
:100810001AEB06004CEB085110EB0A0041EB0B0100
:10082000BDE8F04DFFF736BF70B521F0004303433C
:100830000CD0C1F30A550024D5EB040564EB040386
:10084000D617AD1AB34102DB0020014670BD201857
:1008500041EB025170BD2DE9F04D00231A461B1AE1
:100860008A4103DB00200146BDE8F08DC1F30A5246
:10087000C1F3130141F480154FF0000BD10702D1F1
:1008800000186D41521E0027044640F2FF11384601
:1008900001EB620A3E468046024600204FF480117A
:1008A00000F03CF8C2197141BB1846EB0100B4EBF3
:1008B000030C75EB000C04D3E41A65EB0005174636
:1008C0000E46241908F101006D4180463428E3DD0D
:1008D000F91946EB0600091BA84103D24FF0FF327D
:1008E000134601E0002213461BEB070046EB0A51BA
:1008F000BDE8F04DFFF7CEBE064C074D06E0E068C0
:1009000040F0010394E8070098471034AC42F6D356
:10091000FFF7F0FBC07E0008E07E0008202A04DB21
:10092000203A21FA02F00021704721FA02F3D04068
:10093000C2F12002914008431946704770B58C18E7
:1009400010F8015B15F0070301D110F8013B2A11E3
:1009500006D110F8012B03E010F8016B01F8016BD0
:100960005B1EF9D12B0705D40023521E0DD401F8CC
:10097000013BFAE710F8013BCB1A921C03E013F895
:10098000015B01F8015B521EF9D5A142D8D30020CA
:1009900070BD000008B50121084605F06BF8012183
:1009A0004FF4037005F086F80220ADF80000002037
:1009B0008DF803006946054803F065F81020ADF88E
:1009C00000006946024803F05EF808BD000C0140D3
:1009D0000008014010B5FFF7DDFF00F001F810BD81
:1009E00000B591B0334802F053FC334806903348C9
:1009F0000790002008900220099000200A90802093
:100A00000B9040000C9080000D9020200E90000272
:100A10000F900020109006A9264802F0DFFC01216B
:100A2000244802F029FC0020019001208DF80800E4
:100A30008DF809004FF460200390002004900120FD
:100A40008DF8140001A91C484C3800F063F84FF4ED
:100A5000004005F003F805230122042116484C3814
:100A600000F080F8012114484C3800F034F80121DE
:100A700011484C3800F024F80F484C3800F0CEF8FC
:100A800000BF0D484C3800F03BF80028F9D10A4867
:100A90004C3800F0D3F800BF07484C3800F026F877
:100AA0000028F9D1012104484C3800F0BCF811B0FD
:100AB00000BD0000080002404C240140000100205D
:100AC00021B1826842F00102826003E0826822F074
:100AD00001028260704721B1826842F480728260B4
:100AE00003E0826822F48072826070470146002031
:100AF0008A6802F004020AB1012000E00020704779
:100B0000014600208A6802F008020AB1012000E0D4
:100B10000020704730B502460020002350680F4C7B
:100B200020400D790C6844EA052420435060906809
:100B30000B4C2040D1E902542C434D7944EA450442
:100B400020439060D06A20F470000C7C641EE4B2F4
:100B5000234340EA0350D06230BD0000FFFEF0FFA7
:100B6000FDF7F1FFF0B504460D4600200021092DE8
:100B700011DDE068A5F10A0606EB4607072606FA2E
:100B800007F18843A5F10A0606EB460603FA06F1CB
:100B90000843E0600CE0206905EB4507072606FAEC
:100BA00007F1884305EB450603FA06F10843206187
:100BB000072A0FDA606B561E06EB86071F2606FA19
:100BC00007F18843561E06EB860605FA06F1084330
:100BD000606322E00D2A0FDA206BD61F06EB860732
:100BE0001F2606FA07F18843D61F06EB860605FA8C
:100BF00006F10843206310E0E06AA2F10D0606EB5F
:100C000086071F2606FA07F18843A2F10D0606EBB8
:100C1000860605FA06F10843E062F0BD816841F0FE
:100C200008018160704721B1826842F4A0028260AD
:100C300003E0826822F4A00282607047816841F07C
:100C400004018160704700002DE9F04387B0F74848
:100C50000078F749097890FBF1F201FB1201F448A2
:100C60000078401E814202D10120F2490871EF480C
:100C70000078F149097890FBF1F201FB1201EE488E
:100C80000078401E814202D10120EA494871E748BC
:100C90000078EA49097890FBF1F201FB1201E7487C
:100CA0000078801E814202D10120E2490874DF48A9
:100CB0000078E349097890FBF1F201FB1201E0486A
:100CC0000078401E814202D10120DA49C870D7481D
:100CD0000078DC49097890FBF1F201FB1201D94858
:100CE0000078401E814202D10120D2490873CF48CA
:100CF0000078D549097890FBF1F201FB1201D24846
:100D00000078801E814202D10120CA498873C748F9
:100D10000078CE49097890FBF1F201FB1201CB4833
:100D20000078801E814202D10120C249C873BF48A9
:100D30000078C749097890FBF1F201FB1201C44821
:100D40000078C01E814202D10120BA494874B748D8
:100D50000078C049097890FBF1F201FB1201BD480F
:100D60000078C01E814204D1B248807C401CB14949
:100D70008874AE480078401CC0B2AC490870C828DE
:100D800001DD00200870AB48007840B1A94A5178D5
:100D9000107800F057FC0020A6490870A6E1A5488D
:100DA000807860B10020A34988700090AA488288AA
:100DB00041884FF4C873012001F00CF896E19D487A
:100DC000C07878B100209B49C870A4480078002101
:100DD000A34BCDE900105A6D196DD86C002300F0BB
:100DE000DBFE83E19348407C18B1002091494874B0
:100DF0007CE19048007C28B100208E49087400F006
:100E00006DFF73E18B480079B8B300208949087100
:100E10009449086BFFF775FB04B29249C86AFFF763
:100E200070FB05B28F49886AFFF76BFB06B28D49EC
:100E30008869FFF766FB07B28A494869FFF761FBDB
:100E40000FFA80F887490869FFF75BFB0FFA80F912
:100E50008448B0F908008349B1F90610814AB2F913
:100E600004203346CDE90054CDE9022104903A46EE
:100E70004146484600F0C2FD38E1FFE76D48407941
:100E800018B100206B49487130E16A48007BD8B145
:100E900000206849087302900390049005907248FE
:100EA000408971490989714CCDE900106488A3B269
:100EB0006E4C2488A2B26D4CE488A1B26B4CA4881D
:100EC000A0B200F0E9FC11E15A48807BA8B10020F3
:100ED00058498873009001900290654C0390E48813
:100EE000A3B2634CA488A2B2614C6488A1B2604CE6
:100EF0002488A0B200F010FBF8E04E48C07B70B12F
:100F000000204C49C8735B48B0F900000A2190FBEF
:100F1000F1F084B20021204600F078FCE6E045487C
:100F2000807980B30020434988714B48B0F8900025
:100F300000B24949B1F88C100AB24749B1F888109B
:100F400009B2454BB3F884301BB2CDE90231CDE98B
:100F500004204148B0F8800000B23F49B1F87C104D
:100F600009B2CDE900103C48B0F8780003B23A4825
:100F7000B0F8740002B23848B0F8700001B2012035
:100F800000F082FBB2E0FFE72A48C07980B300207E
:100F90002849C8713048B0F86C0001B22E48B0F84A
:100FA000680000B22C4AB2F8642012B22A4BB3F89F
:100FB00060301BB2CDE90232CDE904012648B0F819
:100FC0005C0000B22449B1F8581009B2CDE9001014
:100FD0002148B0F8540003B21F48B0F8500002B2E4
:100FE0001D48B0F84C0001B2022000F04DFB7DE03E
:100FF000FFE71048007AC0B100200E490872029045
:10100000039004900590009001901348B0F89C0064
:1010100003B21148B0F8980002B20F48B0F894003B
:1010200001B2032000F030FB60E025E0DE0000208C
:10103000DF00002090090020E0000020E1000020F7
:10104000E2000020E3000020E4000020E500002092
:10105000E6000020E7000020F0080020EC0000205F
:101060006C0000208C0B0020080A0020280A0020B9
:1010700034000020FC0000201E48407A78B1002097
:101080001C4948720290039004900590009003461A
:10109000024601460190042000F0F6FA26E01548C9
:1010A000807A78B10020134988720021029103915F
:1010B0000491059100910B460A460520019100F02C
:1010C000E3FA13E00B48C07A78B100200949C872EE
:1010D000029003900490059000900346024601465A
:1010E0000190062000F0D0FA00E000BF07B0BDE894
:1010F000F08300009009002070B504460D460026DC
:10110000002004E0215C3144CEB2411CC8B2691E0B
:101110008142F7DC601910F8010CB04200D070BDBC
:101120002078AA2802D16078AF2800D0F7E7A0780D
:10113000012821D12079012802D1A04908701BE0A3
:101140002079022803D101209C49487014E02079BD
:10115000032804D101209949087048700CE02079D7
:10116000A02803D100209649087005E02079A12825
:1011700002D1012092490870A078022814D1207968
:10118000012806D18F498871C87108724872887227
:10119000C8722079A02802D101208A49887020795C
:1011A000A12801D100F0FEFEA078032832D1022050
:1011B000854948702079617941EA00208349888017
:1011C000A079E17941EA00208049C880207A617ADB
:1011D00041EA00207D490880A07AE17A41EA0020B6
:1011E0007A494880207B617B41EA00207749088169
:1011F000A07BE17B41EA002074494881207C617C2E
:1012000041EA002071498881A07CE17C41EA00200C
:101210006E49C881A07810284AD12079000200B216
:10122000617908436A490867A079000200B2E17950
:10123000084367494867207A000200B2617A084390
:1012400063498867A07A000200B2E17A08436049E6
:10125000C867207B000200B2617B08435C49C1F88B
:101260008000A07B000200B2E17B08435849C1F82E
:101270008400207C000200B2617C08435449C1F81C
:101280008800A07C000200B2E17C08435049C1F80C
:101290008C00207D000200B2617D08434C49C1F8FA
:1012A0009000A078314600F00BF9012049490880F0
:1012B000A078112845D12079000200B26179084355
:1012C0004349C864A079000200B2E179084340496B
:1012D0000865207A000200B2617A08433C494865FB
:1012E000A07A000200B2E17A084339498865207B80
:1012F000000200B2617B08433549C865A07B00024B
:1013000000B2E17B084332490866207C000200B24B
:10131000617C08432E494866A07C000200B2E17C53
:1013200008432B498866207D000200B2617D084396
:101330002749C866A078314600F0C2F80120254947
:101340000880A07812281ED12079000200B26179AD
:1013500008431F49C1F89400A079000200B2E17966
:1013600008431B49C1F89800207A000200B2617A54
:1013700008431749C1F89C00A078314600F0A0F856
:10138000012014490880A078132806D1A07831469E
:1013900000F096F801200F490880A078142803D1A6
:1013A000A078314600F08CF8A078152803D1A078F9
:1013B000314600F085F800BFB1E600008C0B00203C
:1013C000EC0000209009002040000020080A0020C6
:1013D000F0080020DC00002010B5044634480078F6
:1013E00038B9AA2C05D10120314908703148047060
:1013F0005DE02F480078012807D1AF2C05D10220ED
:101400002B4908702B48447051E029480078022885
:1014100007D1F12C05DA032025490870254884708E
:1014200045E02348007803280CD1322C0ADA042046
:101430001F4908701F48C4701F48047000201F49CE
:10144000087034E01A480078042819D11A48007846
:10145000002815DD18480078401E17490870174805
:10146000007816490978491C144A1170001D114969
:101470000C5411480078D0B905200D49087016E0C9
:101480000B48007805280FD10020094908700B4847
:101490000078001D07490C5408480078401DC1B26F
:1014A0000448FFF729FE02E000200149087010BD42
:1014B000EA000020D5090020E8000020E900002013
:1014C00070B504460D46AA200D4908704870EF20FB
:1014D00088700220C87008460471457100260020FB
:1014E00005E00749095C3144CEB2411CC8B2062868
:1014F000F7DB03488671072100F004F870BD000097
:10150000A309002070B505460C462146014805F0A8
:10151000A1FE70BDA30900207FB50024AA222146A8
:10152000641C474842542146641C4254062221460A
:10153000641C425400222146641C42549DF8012040
:101540002146641C42549DF800202146641C4254EC
:101550009DF805202146641C42549DF80420204635
:10156000611CCCB236490A549DF809202046611C02
:10157000CCB233490A549DF808202046611CCCB2F5
:101580002F490A549DF80D202046611CCCB22C49ED
:101590000A549DF80C202146601CC4B228484254CD
:1015A0009DF821202046611CCCB225490A549DF8A3
:1015B00020202046611CCCB221490A549DF82520E8
:1015C0002046611CCCB21E490A549DF824202046B6
:1015D000611CCCB21A490A549DF829202046611C8E
:1015E000CCB217490A549DF828202046611CCCB281
:1015F00013490A549DF82D202046611CCCB2104995
:101600000A549DF82C202046611CCCB20C490A5487
:10161000201FC8700025002005E00949095C294405
:10162000CDB2411CC8B2A042F7DB2046611CCCB24F
:1016300003490D5421460248FFF764FF7FBD0000B7
:10164000A309002070B504460D46AA200D49087074
:101650004870EE2088700220C870084604714571F9
:101660000026002005E00749095C3144CEB2411C48
:10167000C8B20628F7DB034886710721FFF742FF4F
:1016800070BD0000A30900202DE9F84F05460E4665
:1016900017469846DDE90AAB0024AA222146641CBD
:1016A000594842542146641C425405F10F00C2B20D
:1016B0002146641C5448425400222146641C425472
:1016C00000969DF801202146641C42549DF800209C
:1016D0002146641C425400979DF801202146641C59
:1016E00042549DF800202046611CCCB246490A5461
:1016F000CDF800809DF801202046611CCCB2424903
:101700000A549DF800202046611CCCB23E490A5480
:10171000CDF800A09DF801202046611CCCB23A49CA
:101720000A549DF800202046611CCCB236490A5468
:10173000CDF800B09DF801202046611CCCB23249A2
:101740000A549DF800202046611CCCB22E490A5450
:101750000C9800909DF801202046611CCCB22A49CB
:101760000A549DF800202046611CCCB226490A5438
:101770000D9800909DF801202046611CCCB22249B2
:101780000A549DF800202046611CCCB21E490A5420
:101790000E9800909DF801202046611CCCB21A4999
:1017A0000A549DF800202046611CCCB216490A5408
:1017B0000F9800909DF801202146601CC4B2124889
:1017C00042549DF800202046611CCCB20E490A54B8
:1017D000201FC8704FF00009002006E00A49095C8C
:1017E000494401F0FF09411CC8B2A042F6DB204683
:1017F000611CCCB2044901F8009021460248FFF771
:1018000081FEBDE8F88F0000A3090020F8B5054669
:101810000E460024AA222146641C1E48425421463A
:10182000641C425405222146641C42540022214675
:10183000641C425400959DF801202146641C4254CA
:101840009DF800202146641C425400969DF801201A
:101850002146641C42549DF800202146601CC4B2FD
:101860000C484254201F0B49C8700027002005E097
:101870000849095C3944CFB2411CC8B2A042F7DB29
:101880002046611CCCB203490F5421460148FFF7A2
:1018900039FEF8BDA30900207FB50024AA22214605
:1018A000641C554842542146641C4254032221467C
:1018B000641C425400222146641C42549DF80120BD
:1018C0002146641C42549DF800202146641C425469
:1018D0009DF805202146641C42549DF804202046B2
:1018E000611CCCB244490A549DF809202046611C71
:1018F000CCB241490A549DF808202046611CCCB264
:101900003D490A549DF80D202046611CCCB23A494D
:101910000A549DF80C202046611CCCB236490A546A
:101920009DF821202046611CCCB233490A549DF811
:1019300020202146601CC4B22F4842549DF8252027
:101940002046611CCCB22C490A549DF82420204624
:10195000611CCCB228490A549DF829202046611CFC
:10196000CCB225490A549DF828202046611CCCB2EF
:1019700021490A549DF82D202046611CCCB21E49F5
:101980000A549DF82C202046611CCCB21A490A54F6
:101990009DF831202046611CCCB217490A549DF8AD
:1019A00030202046611CCCB213490A549DF83520E2
:1019B0002046611CCCB210490A549DF834202046C0
:1019C000611CCCB20C490A54201FC87000250020AD
:1019D00005E00949095C2944CDB2411CC8B2A042C6
:1019E000F7DB2046611CCCB203490D542146024866
:1019F000FFF788FD7FBD0000A30900202DE9F84F07
:101A000005460E4617469846DDE90AAB0024AA2291
:101A10002146641C5F4842542146641C4254022201
:101A20002146641C425400222146641C4254009505
:101A30009DF801202146641C42549DF80020214657
:101A4000641C425400969DF801202146641C4254B7
:101A50009DF800202146601CC4B24E4842540097B5
:101A60009DF801202046611CCCB24A490A549DF8D9
:101A700000202046611CCCB246490A54CDF80080B3
:101A80009DF801202046611CCCB242490A549DF8C1
:101A900000202046611CCCB23E490A54CDF800A07B
:101AA0009DF801202046611CCCB23A490A549DF8A9
:101AB00000202046611CCCB236490A54CDF800B053
:101AC0009DF801202146601CC4B2324842549DF862
:101AD00000202146601CC4B22E4842540C9800904D
:101AE0009DF801202046611CCCB22A490A549DF879
:101AF00000202046611CCCB226490A540D98009063
:101B00009DF801202046611CCCB222490A549DF860
:101B100000202046611CCCB21E490A540E98009049
:101B20009DF801202046611CCCB21A490A549DF848
:101B300000202046611CCCB216490A5400200090B7
:101B40009DF801202046611CCCB212490A549DF830
:101B500000202046611CCCB20E490A54201FC870D8
:101B60004FF00009002006E00A49095C494401F0F1
:101B7000FF09411CC8B2A042F6DB2046611CCCB272
:101B8000044901F8009021460248FFF7BBFCBDE87C
:101B9000F88F0000A30900202DE9FE4F81460D4675
:101BA00016461F46DDE90CAB00240197AA22214608
:101BB000641C484842542146641C42540122214678
:101BC000641C425400222146641C42544249484647
:101BD000FEF700FB0090FEF794FC00B202909DF827
:101BE00009202146641C3B4842549DF808202146A8
:101BF000641C425438492846FEF7ECFA0090FEF780
:101C000080FC00B202909DF809202146641C3148F6
:101C100042549DF808202046611CCCB22D490A543C
:101C20002D493046FEF7D6FA0090FEF76AFC00B266
:101C300002909DF809202046611CCCB225490A5427
:101C40009DF808202046611CCCB222490A549DF818
:101C500007202046611CCCB21E490A549DF806207C
:101C60002046611CCCB21B490A549DF80520204631
:101C7000611CCCB217490A549DF804202046611C0F
:101C8000CCB214490A542046611CCCB2114901F867
:101C900000A02046611CCCB20E4901F800B0201F04
:101CA000C8704FF00008002006E00A49095C414472
:101CB00001F0FF08411CC8B2A042F6DB2046611CBF
:101CC000CCB2044901F8008021460248FFF71AFC13
:101CD000BDE8FE8FA30900200000C84238B50024EB
:101CE000AA222146641C384842542146641C4254AE
:101CF000F1222146641C425400222146641C4254B5
:101D000032490868FEF7FDFB00B200909DF8012003
:101D10002146641C2C4842549DF800202146641C36
:101D200042542A490869FEF7ECFB00B200909DF886
:101D300001202146641C244842549DF8002021467D
:101D4000601CC4B22048425421498869FEF7D9FB7F
:101D500000B200909DF801202046611CCCB21A49C7
:101D60000A549DF800202046611CCCB216490A5442
:101D70001649C869FEF7C5FB00B200909DF8012026
:101D80002046611CCCB210490A549DF80020204620
:101D9000611CCCB20C490A54201FC87000250020D9
:101DA00005E00949095C2944CDB2411CC8B2A042F2
:101DB000F7DB2046611CCCB203490D542146024892
:101DC000FFF7A0FB38BD0000A30900209408002005
:101DD000040800207FB505460024AA222146641C81
:101DE0002C4842542146641C425400222146641C63
:101DF00042542146641C42542146641C45549DF8BB
:101E000005202146641C42549DF804202146641C90
:101E100042549DF809202046611CCCB21D490A5449
:101E20009DF808202046611CCCB21A490A549DF83E
:101E30000D202046611CCCB216490A549DF80C2096
:101E40002046611CCCB213490A549DF8212020463B
:101E5000611CCCB20F490A549DF820202046611C19
:101E6000CCB20C490A54201FC8700026002005E09F
:101E70000849095C3144CEB2411CC8B2A042F7DB2C
:101E80002046611CCCB203490E5421460148FFF79D
:101E900039FB7FBDA309002018B50246002016E0DB
:101EA0004B1E441CA3420ADB0B4BC35A00939DF804
:101EB000003013549DF80140431CD45405E0064BF8
:101EC000C35A00939DF800301354831C98B2884283
:101ED000E6DB012018BD0000000001082DE9F041FB
:101EE00005460E4601F0B0FD154801F04DFD804657
:101EF000B8F1040F02D00020BDE8F08100241BE0FF
:101F0000701E611C884206DB295D601C285C01EBA9
:101F1000002087B203E0285D00F57F4087B20849C2
:101F20006018394601F070FD8046B8F1040F01D009
:101F30000020E1E7A01C84B2B442E1DB0120DBE732
:101F4000000001084FF4805001490860704700000C
:101F5000140C01404FF480500149086070470000A4
:101F6000100C014008B50121084603F0A3FD012132
:101F70000A4801F013FE0121082003F09BFD102008
:101F80008DF8030003208DF8020041F20800ADF83F
:101F900000006946024801F076FD08BD00023000ED
:101FA000000C014010B5AA2020490870C8204880C4
:101FB000642088804FF47A70C86401461B4801652C
:101FC000416508461949886501461848C16501669A
:101FD000084616494866014614488166C1660846A7
:101FE00012490867014611484167816708460F4951
:101FF000C86701460D48C0F88010C0F88410084634
:102000000A49C1F8880001460848C0F88C10C0F899
:10201000901008460549C1F8940001460348C0F8ED
:102020009810C0F89C1000F011F810BDF0080020C6
:1020300010B5A0210448FFF72FFF03480078AA2815
:1020400001D0FFF7AFFF10BDF008002010B5A021B0
:102050000248FFF743FF05F00DFC10BDF00800201B
:1020600010B54FF40061024801F0E2FD10BD000020
:102070000008014010B54FF40061024801F0D6FDA0
:1020800010BD00000008014000B587B00121042008
:1020900003F010FD0121082003F00CFD012188034D
:1020A00003F0F8FC4FF46040ADF8040001208DF817
:1020B000060018208DF8070001A91C4801F0E3FC78
:1020C0004FF41060ADF8040001208DF806001020D8
:1020D0008DF8070001A9164801F0D5FCFFF7C0FFF5
:1020E0000020ADF808004FF48270ADF80A0000201F
:1020F000ADF80C00ADF80E00ADF810004FF4007014
:10210000ADF812001020ADF814000020ADF8160054
:102110000720ADF8180002A9064803F0EDFD0121E3
:10212000044803F0CFFD07B000BD0000000C0140E3
:10213000000801400038004010B5044600BF0221ED
:102140000A4803F0CBFD0028F9D02146074803F0E8
:10215000D1FD00BF0121054803F0C0FD0028F9D0E2
:10216000024803F0C4FDC0B210BD000000380040BA
:102170000146CAB20B1243EA022070472DE9FE4322
:102180000646894614461D46DDE90A7800200749BF
:10219000074A3B46CDE9002102902A4621463046B7
:1021A00003F08CFAC8F80000BDE8FE837008002038
:1021B0007C07002070B51949D1F89400FEF793F917
:1021C00005461749FEF706F804461649FEF702F8D9
:1021D000154908601149D1F89800FEF784F90546C1
:1021E0000021FDF7F7FF04460E49FDF7F3FF0E4906
:1021F0004860002088600949D1F89C00FEF773F917
:1022000005460021FDF7E6FF04460649FDF7E2FF1B
:102210000549C8604FF07E50886170BDF00800200D
:10222000CDCCCC3D6F12833A7C070020FEB505462D
:102230000E46144631461948FDF7CCFF07461848AC
:102240001849CDE901070091226811462846236903
:1022500003F034FAE06131461048FDF7BBFF074652
:1022600011481249CDE901070091626811462846DC
:10227000636903F023FA206231460D48FDF7AAFF97
:1022800007460C480C49CDE901070091A2681146A8
:102290002846A36903F012FA6062FEBD00004843BD
:1022A00004080020280700202808002044070020F8
:1022B0000000C8434C0800206007002070B54B495F
:1022C000086FFEF710F905464FF08041FDF782FFD9
:1022D00004464749FDF77EFF464908604349486F79
:1022E000FEF701F905464FF08041FDF773FF044604
:1022F0003F49FDF76FFF3F494860002088603B4938
:10230000886FFEF7F0F805463B49FDF763FF04468A
:102310003749FDF75FFF3749C8603848886133495E
:10232000C86FFEF7E0F805464FF08041FDF752FF19
:1023300004462F49FDF74EFF314908602B49D1F87B
:102340008000FEF7D0F805464FF08041FDF742FFD0
:1023500004462749FDF73EFF294948600020886070
:102360002249D1F88400FEF7BEF805462249FDF760
:1023700031FF04461E49FDF72DFF2149C8601C4866
:1023800088611A49D1F88800FEF7ADF805464FF08C
:102390008141FDF71FFF04461549FDF71BFF194951
:1023A00008601249D1F88C00FEF79DF805464FF001
:1023B0008041FDF70FFF04460D49FDF70BFF114962
:1023C0004860002088600949D1F89000FEF78BF83A
:1023D00005460949FDF7FEFE04460549FDF7FAFEEC
:1023E0000849C8600448886170BD0000F0080020FA
:1023F0006F12833A280700208FC2753D0AD7233C0D
:102400004407002060070020FEB505460E4614462E
:1024100031461948FDF7DEFE074618481849CDE950
:1024200001070091002128462369226803F046F93C
:10243000E06131461048FDF7CDFE074611481249CC
:10244000CDE901070091002128466369626803F025
:1024500035F9206231460848FDF7BCFE07460B48B7
:102460000B49CDE90107009100212846A369A26824
:1024700003F024F96062FEBD0000A0409807002030
:10248000D4060020BC070020F0060020E007002052
:102490000C07002070B54449C86CFEF724F80546C7
:1024A0004249FDF797FE04464149FDF793FE414935
:1024B00008603D49086DFEF716F805463E49FDF7F0
:1024C00089FE04463A49FDF785FE3A494860364997
:1024D000486DFEF708F805463549FDF77BFE0446D2
:1024E0003349FDF777FE334988600020C860886172
:1024F0002D49886DFDF7F7FF05462C49FDF76AFE6B
:1025000004462B49FDF766FE2C4908602649C86D34
:10251000FDF7E9FF05462849FDF75CFE044624491E
:10252000FDF758FE254948601F49086EFDF7DBFF9F
:1025300005461F49FDF74EFE04461D49FDF74AFEBC
:102540001E4988600020C86088611749486EFDF701
:10255000CAFF05461549FDF73DFE04461449FDF73F
:1025600039FE174908601049886EFDF7BCFF054623
:102570001449FDF72FFE04460D49FDF72BFE1049C7
:1025800048600949C86EFDF7AEFF05460849FDF7EA
:1025900021FE04460649FDF71DFE0949886000201A
:1025A000C860886170BD0000F0080020CDCC4C3FB1
:1025B0006F12833AD40600209A99993FF0060020C2
:1025C0000C0700200AD7233C2DE9FF4F83B00E46AD
:1025D00014461F46FE480078FD4908710979012913
:1025E00001D0012100E000210846FDF77CFFF949F8
:1025F0000860F748007890B948684FF07E51FDF7C1
:10260000DDFF07D2F3494868F349FDF78BFDF14937
:10261000486007E04FF07E50EE49486002E000203D
:10262000EC494860ED480078401CEC4908700846C9
:102630000078032190FBF1F201FB1200E7490870DA
:1026400008460078002875D101F014FBE4490968B8
:10265000A0EB010B5846FDF74FFF8246E149FDF71D
:10266000B9FD0546E0490398FDF7B4FD8246DF4910
:10267000FDF7B0FD804686F0004BDB495846FDF77C
:10268000A9FD8246D949FDF7A5FD814601A802AB07
:102690004A4641460090002004F050FED44902987A
:1026A00008600198486000208860D248C06C0861CA
:1026B000D048006D4861D049C868D049FDF77EFF19
:1026C00001D2CE4809E0CC49C868CD49FDF780FF6A
:1026D00001D2CB4801E0C848C06880F00040C4493E
:1026E0008861BC48C24A41682846FFF78DFEC04950
:1026F000C869C449FDF762FF01D2C24809E0BC497C
:10270000C869BA49FDF764FF01D2B84801E0B8488A
:10271000C069B749C861086ABA49FDF74FFF01D2DD
:10272000B8480AE0B249086AB049FDF751FF02D241
:10273000AE4802E01BE0AE48006AAD490862486A54
:10274000B149FDF73BFF01D2AF4809E0A849486A0B
:10275000AE49FDF73DFF01D2AC4801E0A448406A14
:10276000A349486201F086FA9D49086000BF01F064
:1027700081FAA7490968A0EB01094846FDF7BCFEAC
:1027800080469849FDF726FD0546A248016897480E
:10279000FDF720FD96490190C8690021FDF718FF5B
:1027A00002D29348C06903E09148C06980F00040BC
:1027B00083460199FDF740FD82464FF07D51FDF7BC
:1027C00009FD81464FF07A51FDF7ACFC8046884800
:1027D000C1694FF08240FDF7FDFC41460290FDF7D4
:1027E000F9FC854908608C4801688048FDF7F2FCD7
:1027F0007F490190086A0021FDF7EAFE02D27C4879
:10280000006A03E07A48006A80F00040834601993C
:10281000FDF712FD82464FF07D51FDF7DBFC81464E
:102820004FF07A51FDF77EFC80467148016A4FF007
:102830008240FDF7CFFC41460290FDF7CBFC6E498C
:10284000486039466848FDF7C5FC8146734A002157
:1028500004F0B0FF80467249FDF7BCFC6649886011
:102860005B48007900BB6F48C06B80F0004A0846A7
:1028700081685046FDF7ABFC81462946FDF7AAFC6E
:1028800080465D48C1684046FDF74CFC5A49C86027
:10289000C8685E49FDF79CFE07D25749C86862497F
:1028A000FDF792FC5449C8600CE05349C86856498A
:1028B000FDF784FE06D25049C8685B49FDF732FC3B
:1028C0004D49C860594801685048FDF783FC4849A4
:1028D0000190486A0021FDF77BFE02D24448406A1D
:1028E00003E04348406A80F0004000900199FDF702
:1028F000A3FC83464FF07D51FDF76CFC82464FF000
:102900007A51FDF70FFC81463948416A4FF080400B
:10291000FDF760FC49460290FDF75CFC80463648B6
:1029200081684046FDF7FEFB3349886008684049EE
:10293000FDF744FE01D23E4809E02F4908683D49B1
:10294000FDF746FE01D23B4801E02B4800682A49CA
:10295000086048683649FDF731FE01D2344809E085
:10296000254948683349FDF733FE01D2314801E07B
:10297000214840682049486088682F49FDF71EFEBD
:1029800001D22D4809E01C4988682549FDF720FE41
:1029900001D2234801E0184880681749886021481F
:1029A000406B08611F48806B80F0004048611D4803
:1029B000C06B80F00040886106480F4A4168284695
:1029C000FFF734FC0C49C8691C49FDF7F7FD37E0F7
:1029D0004000002048000020A69B443B3C00002013
:1029E00000000020BD3786356F12033B00000C420B
:1029F000BC0800206C000020940800200000A0C14A
:102A00000000A04100000CC2000034C300003443A9
:102A100004000020D4060020F0060020CDCCCC3DE0
:102A2000000048438C0B00200000B4430C0700203A
:102A3000000096C300009643000048C300007AC41B
:102A400001D26A4809E06A49C8696A49FDF7C0FDD0
:102A500001D2684801E06648C06980466649086856
:102A60004146FDF7B7FB6249C861086A5F49FDF757
:102A7000A5FD01D25D4809E05D49086A5D49FDF7A1
:102A8000A7FD01D25B4801E05948006A80465A49D7
:102A900008684146FDF79EFB55490862486A53495C
:102AA000FDF78CFD01D2514809E05149486A51496E
:102AB000FDF78EFD01D24F4801E04D48406A804647
:102AC0004D4908684146FDF785FB4949486201F0D8
:102AD000D1F84A49086001F0CDF849490968A0EBEE
:102AE00001094846FDF708FD80464649FDF772FB9F
:102AF000054600212046FDF76BFD0AD221464248DB
:102B0000FDF768FB80464149FDF764FB40490860DA
:102B100009E021463C48FDF75DFB80463D49FDF755
:102B200059FB3B4908603C4B3948294602684FF045
:102B3000804001F067FF39492046FDF7F3FA384934
:102B40000860384834490968CDE900102A4801680E
:102B50002F480368324802682846FFF70FFB002120
:102B600030480068FDF72AFD01D2002009E02E4917
:102B70002C480068FDF72CFD01D22B4801E02948C4
:102B800000682849086001F075F81D490860184878
:102B9000C069264908601648006A2549086014483B
:102BA000406A244908601F480068FDF7AAFC0FFA34
:102BB00080F820480068FDF7A4FC0FFA80F91C4853
:102BC0000068FDF79EFC0FFA80FA18480068FDF7D0
:102BD00098FC0FFA80FB4B46524659460A48CDF8FE
:102BE000008004F011FD07B0BDE8F08F00007AC44A
:102BF0009408002000007A444800002004000020CF
:102C000008000020BD3786356F12033B00409C450D
:102C10001400002000803B45180000200000FA430B
:102C20000C00002010000020000048441C00002080
:102C3000200000202400002010B5002473E147F696
:102C4000FF70BF490860BF48008800F00F00BE4910
:102C500008700846007800287ED1B94844380068DA
:102C600000F44050B9490880B5484438006800F085
:102C70003000B7490880B249443909684BF68F7271
:102C800001EA020080F40050AD4944390860096847
:102C900048F6BF7201EA020080F02000A8494439DA
:102CA0000860A848008800F01000002838D10846C5
:102CB000006848F60F710840A1494439086001F0E6
:102CC000F9FD9F49443909684BF68F7201EA020009
:102CD0009E49098801F4805109B180F480509B49D4
:102CE000098801F4005109B180F400509449443935
:102CF0000860096848F6BF7201EA02009449097841
:102D000001F0100109B180F010009149097801F03B
:102D1000200109B180F0200089494439086010BDC4
:102D200087484438006884B204F08000D8B38448EF
:102D30004438006848F60F710840814944390860FA
:102D400001F0B8FD7E49443909684BF68F7201EAFB
:102D500002007E49098800E0A6E001F4805109B133
:102D600080F480507949098801F4005109B180F458
:102D70000050734944390860096848F6BF7201EA97
:102D800002007349097801F0100109B180F01000C8
:102D90006F49097801F0200109B180F020006849ED
:102DA00044390860BBE7FFE704F40060D8B3644827
:102DB00044380068C0F30E0048F68F71084060493F
:102DC0004439086003F00EF95D49443909684BF64F
:102DD0008F7201EA02005D49098801F4805109B14E
:102DE00080F480505949098801F4005109B180F4F8
:102DF0000050534944390860096848F6BF7201EA37
:102E000002005349097801F0100109B180F0100067
:102E10004F49097801F0200109B180F020004849AC
:102E2000443908607BE7FFE704F4004000287AD0CB
:102E3000434844380068C0F30E0048F68F710840DC
:102E40003F494439086002F0F7FB3D4944390968BD
:102E50004BF68F7201EA02003C49098801F4805167
:102E600009B180F480503949098801F4005109B151
:102E700080F40050324944390860096848F6BF724E
:102E800001EA02003249097801F0100109B180F02D
:102E900010002F49097801F0200109B180F02000CD
:102EA0002749443908603AE727480078294901EB67
:102EB0008000D0F8000C84B204F40040C0B1224875
:102EC000007801EB8000D0F8000CC0F30E0048F64B
:102ED0008F7108401C4909781E4A02EB8101C1F834
:102EE000000C19490978491E1B4A52F821008047F5
:102EF00004F08000B8B114480078164901EB800056
:102F0000D0F8000C48F60F7108400F490978114AB3
:102F100002EB8101C1F8000C0B490978491E0F4AE8
:102F200052F8210080470648006880B205490880B1
:102F300000F4004000287FF482AE00BFEFE60000FE
:102F4000445C0040B405002080050020940500206A
:102F50009605002000500040D4050020B805002050
:102F60000B4A02EB8001D1F8001C01F4804169B1E9
:102F700002EB8001D1F8001C48F68F72114041F439
:102F80008041034B03EB8002C2F8001C7047000035
:102F9000005000400B4A02EB8001D1F8001C01F008
:102FA000400169B102EB8001D1F8001C48F68F7234
:102FB000114041F04001034B03EB8002C2F8001CBA
:102FC0007047000000500040064A02EB8001D1F833
:102FD000001C48F68F621140024B03EB8002C2F8DE
:102FE000001C70470050004070B504460025062CB8
:102FF00018D118480068007800F07F00012811D12E
:1030000014480068407968B912480068807822281E
:1030100001D1114D10E00F480068807821280BD1B4
:103020000E4D09E00B480068007800F07F00212871
:1030300002D1032C00D10A4D0DB9022070BD054804
:103040000068856100210348006841820020A8478C
:103050000020F3E784050020BD3000088D30000813
:10306000A130000810B504460249204603F0D6F806
:1030700010BD00005406002010B504460249204649
:1030800003F0CCF810BD00004C06002010B504463B
:103090000249204603F0C2F810BD0000640600207B
:1030A000014629B90120034A1268108200207047A6
:1030B0000148FCE784050020F005002010B5044617
:1030C0000249204603F0AAF810BD00005C0600206B
:1030D00070B5054606480068C478042C01DD002060
:1030E00070BD044800EBC401284603F097F8F7E7E9
:1030F000840500206C0600200246002901DD022024
:103100007047002A01DD0220FAE70020F8E70000FE
:1031100000B5024606480068007800F07F002128CC
:1031200004D10B2A02D100F077F800BD0220FCE7A1
:103130008405002010B500202A49096888722949B1
:103140000968C8722848C079264909684872002071
:1031500002F0F0FD4FF40071002002F0BDFE1021DE
:10316000002002F09DFE1821002002F011FE5821DF
:10317000002002F077FE0020FFF726FF1B4890F8A2
:103180002C10002002F016FE002002F055FE4FF435
:10319000C061012002F0A0FE9821012002F0F8FD9C
:1031A0004021012002F006FE4FF44051012002F0C0
:1031B00027FE4FF4C061022002F08EFE4FF48C71A6
:1031C000022002F04FFE4021022002F05BFE20218F
:1031D000022002F065FE012005490860002002F08F
:1031E000B1FD10BD84050020FA7D0008F80500201F
:1031F0008C06002003480068807A10B1052002493F
:1032000008607047840500208C06002004200149D6
:10321000086070478C06002003480068C1780348A6
:10322000016000207047000084050020F0050020A8
:103230007047704710B500F03FFD00200A4909684B
:10324000887202F0EBFB0020084908604FF43F4011
:1032500007490880084600880449091F08600020C3
:103260000449086010BD000084050020445C004053
:103270008E0500208C06002021B1026842F0010278
:10328000026004E002684FF6FE731A400260704765
:1032900001684FF6FE72114001600021016041603B
:1032A0008160C1604B49884208D14A490839496860
:1032B00041F00F01474A083A51608AE0454914310C
:1032C000884208D143490839496841F0F001414A30
:1032D000083A51607DE03F492831884208D13D4994
:1032E0000839496841F470613A4A083A516070E01F
:1032F00038493C31884208D136490839496841F497
:103300007041344A083A516063E032495031884292
:1033100008D130490839496841F470212D4A083AEA
:10332000516056E02B496431884208D12949083957
:10333000496841F47001274A083A516049E025493B
:103340007831884208D123490839496841F07061D1
:10335000204A083A51603CE01F49884206D1011FCB
:10336000096841F00F01021F116032E01A4914315F
:10337000884208D11849091F096841F0F001164A2E
:10338000121F116025E014492831884208D11249E2
:10339000091F096841F470610F4A121F116018E09B
:1033A0000D493C31884208D10B49091F096841F495
:1033B0007041094A121F11600BE0074950318842E1
:1033C00007D10549091F096841F47021024A121FFB
:1033D00011607047080002400804024010B5002246
:1033E000026847F6F0739A430C6A8B6823430C69B2
:1033F00023434C6923438C692343CC6923434C6AA0
:1034000023438C6A23431A430260CB6843600B68F2
:1034100083604B68C36010BD2DE9F0472848006801
:1034200000F110052E8826480068077AD6B9042FC7
:1034300018D12448007801280FD1002122480068C3
:1034400080B2801C214A42F81010302020490880A8
:1034500000BF00201B49087003E0072710201C490B
:10346000088027E0AC88A64201D8042000E00220B2
:103470000746B44200D93446A0B2A96888478046BE
:10348000002000F0E7FB8146A2B24946404603F027
:1034900085FBA1B2002002F0F5FC2888001B2880E3
:1034A0006888204468803020094908800002094962
:1034B000088000BF024909680F72BDE8F08700006C
:1034C000840500207E050020505C00400060004024
:1034D00096050020940500202DE9F0412848006859
:1034E00000F110042688A068C0B1BEB1A588B5421D
:1034F00000D93546A8B2A168884707462088401BF6
:103500002080608828446080002000F093FB804683
:10351000AAB24146384602F0C1F900BF208850B136
:103520004FF44050174908800021084602F0AAFCD9
:103530003020154908802088A188884204DB0320B8
:103540000F490968087218E02088002804DD05206A
:103550000B490968087210E0208870B906200849F4
:103560000968087200210948006880B2801C084A76
:1035700042F81010302004490880BDE8F0810000B6
:10358000840500209405002096050020505C004032
:10359000006000402DE9F84F9B48006845780027FF
:1035A000BA46062D1BD198480068007800F07F00CD
:1035B000002813D1944909688878012803D19349D8
:1035C0000968CF690AE0022803D1904909680F6AA7
:1035D00004E0032802D18D4909684F6A94E0002D68
:1035E00064D189480068408800285FD18648006817
:1035F000C08802285AD1844800680079002855D133
:1036000081480068007800F07F0028B97E48006893
:10361000808808B97E4F77E07B480068007800F02A
:103620007F00012810D178490968487977490968ED
:103630008A6900219047002866D173480068807A23
:10364000002861D0724F5FE06F480068007800F09A
:103650007F00022858D16C480068407900F00F06BE
:1036600069480068407900F070096748006840794F
:1036700000F0800038B1674901EB8600D0F8000CFB
:1036800000F0300806E0634901EB8600D0F8000C3A
:1036900000F4405860480078B04235D9B9F1000FC5
:1036A00032D1B8F1000F2FD0594F2DE0082D07D19E
:1036B00055480068007800F07F0028BB574F23E092
:1036C0000A2D21D150480068007800F07F000128C1
:1036D0001AD14D480068807AB0B14B4800684088E4
:1036E00090B949480068007970B947480068C088B7
:1036F000012809D1444909684879444909688A6917
:103700000021904700B9464F57B13F480068A0F8E4
:1037100012A03D48006887610020B84700240FE0F0
:10372000394A12685078394A126811698847044644
:10373000032C05D10920344909680872BDE8F88FC7
:1037400031480068008A4FF6FF71884204D1092091
:103750002D4909680872F1E7022C03D02A48006855
:10376000008A20B90820284909680872E6E7264837
:103770000068007800F08000E0B323480068C0884B
:10378000009021480068008A0099884204D91E49A7
:1037900000980968088223E01B480068008A1A49DB
:1037A0000968C98888421BDA17480068008A1749E7
:1037B000096891F82C10884203DA00201949087032
:1037C0000EE011480068008A1049096891F82C1031
:1037D00090FBF1F201FB120010B9012011490870B1
:1037E0000A48006890F82C10074800688182FFF7AB
:1037F00013FE07E0FFE7032003490968087200038E
:103800000949088000BF99E7840500208805002049
:103810006D62000800500040F4050020F1610008CE
:10382000416200087E0500209405002011B50024A7
:1038300005E04FF47A7000F006F8601C84B200983E
:103840008442F6D318BD11B500F014FA044600BF47
:1038500000F010FA001B00998842F9D318BD704798
:1038600010B5024801F084F810BD00000AD7A33C4F
:103870002DE9F041FDF7E8F900F0FCF9184908607E
:10388000184801F02BFA174802F08EF91649B1F9E1
:103890000600FCF728FE04461349B1F90400FCF7C2
:1038A00022FE05461049B1F90200FCF71CFE06464F
:1038B0000D49B1F90000FCF716FE074623462A46DB
:1038C0003146FEF781FE00F0D5F90549486008460B
:1038D00040680968401A02498860BDE8F08100002C
:1038E000AC0600206F12033B180A002010B53221ED
:1038F00040F2DC5001F0C8FE04F0E8F910BD000011
:1039000010B500F0B7F90A49C8600A4B0A4A02F13B
:1039100018010A4800F0E6FB00F0ACF90449086120
:1039200008460069C968401A0149486110BD000095
:10393000AC0600206C000020A80B0020A69BC43B16
:1039400010B540229821054801F0A8FF0120044944
:1039500008704FF4405102F053FA10BD3C0A0020A9
:10396000B2050020002004E00021034A1154411C4C
:10397000C8B24028F8DB70476010002003200149DE
:10398000086070478C06002030B5044604254FF4CB
:10399000302000F065F80546042D17D10C48006969
:1039A00040F002000A49086108464461006940F09D
:1039B000400008614FF4302000F052F805460448FA
:1039C000006941F6FD71084001490861284630BD93
:1039D0000020024004200B49C96801F0010109B12F
:1039E00001200EE00749C96801F0040109B1022075
:1039F00007E00449C96801F0100109B1032000E0A3
:103A0000042070470020024070B504460D4604268D
:103A1000F00200F025F80646042E11D1094800698D
:103A200040F00100074908612580F00200F018F815
:103A300006460448006941F6FE71084001490861E4
:103A4000304670BD002002400248034948600348E8
:103A5000486070472301674500200240AB89EFCDE5
:103A600000B502460423FFF7B5FF034603E0FFF766
:103A7000B1FF0346521E012B01D1002AF7D102B932
:103A80000523184600BD2DE9F04102460025002619
:103A9000002000230024002791F803C00CF00F053C
:103AA00091F803C00CF0100CBCF1000F03D091F89A
:103AB00002C04CEA050591F800C0BCF1000F31D0FE
:103AC000146800202BE04FF0010C0CFA00F3B1F861
:103AD00000C00CEA03069E4220D183004FF00F0C79
:103AE0000CFA03F7BC4305FA03FC4CEA040491F812
:103AF00003C0BCF1280F06D14FF0010C0CFA00FCFA
:103B0000C2F814C00AE091F803C0BCF1480F05D117
:103B10004FF0010C0CFA00FCC2F810C0401C082841
:103B2000D1D31460B1F800C0BCF1FF0F34DD54688C
:103B300000202EE000F1080C4FF0010808FA0CF309
:103B4000B1F800C00CEA03069E4221D183004FF079
:103B50000F0C0CFA03F7BC4305FA03FC4CEA04040F
:103B600091F803C0BCF1280F05D100F1080C08FA48
:103B70000CF8C2F8148091F803C0BCF1480F07D1CB
:103B800000F1080C4FF0010808FA0CF8C2F8108098
:103B9000401C0828CED35460BDE8F081F0B50A4639
:103BA000002300240021002500F00046B6F1004F5C
:103BB00002D11D4EF16901E01B4E7168C0F303454F
:103BC00083B200F44016B6F5401F08D121F07061B1
:103BD000154E766826F07066134F7E6012E000F492
:103BE0008016B6F5801F06D1032606FA05F4A14318
:103BF00041F0706106E0460D360103FA06F6B14366
:103C000041F0706122B1460D360103FA06F63143E8
:103C100000F00046B6F1004F02D1034EF16101E021
:103C2000014E7160F0BD000000000140416170472D
:103C30000161704701460548006880B200EBC10091
:103C4000001D034A32F8100080B27047505C0040FB
:103C50000060004001460548006880B200EBC100EA
:103C6000034A32F8100080B270470000505C0040F8
:103C70000060004000BF0E4801684FF0E0208269FC
:103C80000B4800688142F6D10A48006800EB400307
:103C9000C3EBC010C2EBC000064B1B68B0FBF3F0D7
:103CA00001EB4103C3EBC11300EBC30070470000FD
:103CB000340100203001002010B50F4B18681B1D87
:103CC00019681B1D1A68A8B10C4CA070030A237157
:103CD000030CA371030E2372A1720B0A23730B0C46
:103CE000A3730B0E2374A274130A2375130CA3750C
:103CF000130E237610BD0000E8F7FF1F9805002083
:103D000000B54FF480600C49086000F037F94FF4BB
:103D100000600949086000F031F94FF480600649FD
:103D2000091F086000F02AF94FF48060024908601A
:103D300000F024F900BD0000140C014008B5012179
:103D4000082001F0B7FE4FF48060ADF800000320BA
:103D50008DF8020014208DF8030069460848FFF72B
:103D600092FE4FF40060ADF8000003208DF80200D1
:103D700014208DF8030069460148FFF784FE08BD52
:103D8000000C014000B54FF480600C49086000F061
:103D9000F5F84FF400600949091F086000F0EEF8DB
:103DA0004FF480600549091F086000F0E7F84FF400
:103DB00080600249086000F0E1F800BD140C014089
:103DC00010B503460824002220021649086016E0B8
:103DD0005006020E4FF480601249091D086000F081
:103DE000CDF84FF480600F49086000F0C7F80D4827
:103DF0000838006800F4006008B142F001022000B9
:103E0000A4F10101CCB2E3D14FF480600549091D52
:103E1000086013B1FFF774FF01E0FFF7B3FF10462E
:103E200010BD0000100C014000B508211DE04FF44A
:103E30008062134B1A6000F0A1F800F080022AB1F2
:103E40004FF400620E4B1B1F1A6003E04FF4006238
:103E50000B4B1A604206100E00F090F84FF480628F
:103E6000074B1B1F1A6000F089F80A00A1F101033B
:103E7000D9B2DCD14FF48062014B1A6000BD000062
:103E8000140C014000B54FF4006015490860401063
:103E9000086000F073F812480838006808B901207B
:103EA00000E0002000F4006008B1002000BD4FF4E5
:103EB00000600B49091D086000F060F808480838E8
:103EC000006800F4006008B10020EFE74FF40060E4
:103ED0000349091D086000F051F80120E6E70000E1
:103EE000100C014000B54FF480600C49086000F0F0
:103EF00045F84FF400600949086000F03FF84FF4BE
:103F000080600649091F086000F038F84FF400602F
:103F10000249091F086000F031F800BD140C01408F
:103F200000B500224FF480601349086000F026F8C5
:103F30004FF400601049091F086000F01FF84FF4AB
:103F400080600D49091F086000F018F80A480C3815
:103F5000006800F4006038B1501CC2B2C82A03DD0A
:103F6000FFF7C0FF012000BD4FF4806002490860E8
:103F700000F004F80020F6E7140C014000BF00BF79
:103F800000BF00BF70470000F0B506460F4614465C
:103F90001D46FFF777FF184908707106080EFFF7F6
:103FA00043FFFFF7BDFF18B1FFF79CFF0120F0BDF5
:103FB0003846FFF739FFFFF7B3FFFFF763FF012133
:103FC00001EB4601C8B2FFF72FFFFFF7A9FF0DE095
:103FD000012C04D10020FFF7F3FE287003E001203C
:103FE000FFF7EEFE28706D1C601EC4B2002CEFD1EE
:103FF000FFF778FF0020DAE73801002070B50446AB
:104000000D461646FFF73EFF6106080EFFF70CFF50
:10401000FFF786FF18B1FFF765FF012070BD284646
:10402000FFF702FFFFF77CFF3046FFF7FDFEFFF7CB
:1040300077FFFFF757FF0020F0E7F8B506460F4679
:1040400014461D466B46012239463046FFF79CFF59
:104050002DB10120A0409DF80010084305E001208B
:10406000A0409DF8001021EA0000C0B200909DF829
:10407000002039463046FFF7C1FFF8BD2DE9F8436F
:104080000746884614461D46089E6B460122414657
:104090003846FFF779FF601CFF2101FA00F0C4F1F8
:1040A00008012944491EFF220A41104300F0FF097C
:1040B000C5F1080006FA00F0C6B2C4F107000641D7
:1040C0009DF8000000EA090000909DF800003043D0
:1040D00000909DF8002041463846FFF78FFFBDE86D
:1040E000F88300000FB5A5B0FE482390FE4822904B
:1040F0002898006818902898406817902898806839
:1041000016902898C0681590DDE91710FCF762F842
:10411000219016991898FCF75DF820901799084699
:10412000FCF758F81F9015991798FCF753F81E9054
:1041300016990846FCF74EF81D90DDE91510FCF7BE
:1041400049F81C9015990846FCF744F81B90DDE9E6
:104150001610FCF73FF81A9015991898FCF73AF8E2
:10416000199027988068069027988068059006998E
:10417000FCF730F80890279840680490279840682A
:1041800003900499FCF726F806902798006804909D
:104190002798006803900499FCF71CF8059006998D
:1041A000FBF7C0FF07900899FBF7BCFF099003F0ED
:1041B00025FB14902798006809901499FCF73CF8A7
:1041C00010902798406809901499FCF735F81190E1
:1041D0002798806809901499FCF72EF812904FF0F8
:1041E00080401B99FBF7F6FF08904FF080401D9927
:1041F000FBF7F0FF07900899FBF794FF4FF07E5113
:104200000990FBF7E4FF289908614FF08040199965
:10421000FBF7E0FF09904FF080401A99FBF7DAFFB7
:1042200008900999FBF7D0FF0146289841614FF0AB
:1042300080402099FBF7CEFF09904FF080401E99F7
:10424000FBF7C8FF08900999FBF76CFF0146289817
:1042500081614FF080401999FBF7BCFF09904FF046
:1042600080401A99FBF7B6FF08900999FBF75AFFAF
:104270002899C8614FF080401B99FBF7ABFF08906D
:104280004FF080401F99FBF7A5FF07900899FBF7B7
:1042900049FF4FF07E510990FBF799FF014628989E
:1042A00001624FF080402199FBF794FF09904FF095
:1042B00080401C99FBF78EFF08900999FBF784FF5B
:1042C0000146289841624FF080402099FBF782FF19
:1042D00009904FF080401E99FBF77CFF08900999E8
:1042E000FBF772FF289988624FF080402199FBF715
:1042F00071FF09904FF080401C99FBF76BFF08900D
:104300000999FBF70FFF01462898C1624FF08040E2
:104310001D99FBF75FFF08904FF080401F99FBF756
:1043200059FF07900899FBF7FDFE4FF07E51099069
:10433000FBF74DFF0146289801632898806A0146E3
:1043400008906A48FBF746FF0990279800680146E5
:1043500008900998FBF73BFF289948632898C06AA2
:10436000014608906148FBF735FF0990279840689F
:10437000014608900998FBF72AFF014628988163B7
:104380002898006B014608905848FBF723FF0990D6
:1043900027988068014608900998FBF718FF0146A6
:1043A0002898C163129807902898C06A06900799C8
:1043B000FBF710FF09902898006B07901198069062
:1043C0000799FBF707FF08900999FBF7FDFE0D9091
:1043D000129807902898806A06900799FBF7FAFED2
:1043E00009902898006B0790109806900799FBF7A2
:1043F000F1FE08900999FBF7E7FE80F000400E906F
:10440000109807902898C06A06900799FBF7E2FE7B
:1044100009902898806A0790119806900799FBF7F1
:10442000D9FE08900999FBF7CFFE80F000400F906D
:104430000D9803462E4A2F490990259803F072F8EB
:104440000E9803462C4A2B490990259803F06AF8E8
:104450000F980346294A27490990259803F062F8E6
:1044600023484068014607902598FBF7B3FE089063
:104470002299FBF7AFFE0990214800680146089099
:104480000998FBF74FFE1E4908601B48406801462B
:1044900007902598FBF79EFE08902299FBF79AFE5D
:1044A000099017484068014608900998FBF73AFEC2
:1044B0001349486011484068014607902598FBF76A
:1044C00089FE08902299FBF785FE09900C488068C8
:1044D000014608900998FBF725FE094988600846BF
:1044E00000680FE09A99993E6F12833A00201946AE
:1044F000C4000020CDCC4C3ECC000020D4000020D5
:10450000E40800200490E448406803900499FBF715
:1045100009FE05902399FBF75DFE07902698006839
:10452000DE490590FBF756FE06900799FBF7FAFD6A
:1045300008902599FBF74EFE4FF080410990FBF75C
:104540007BFE0A90D64840680490D64840680390A5
:104550000499FBF7E7FD05902399FBF73BFE0790D5
:1045600026984068CD490590FBF734FE06900799E0
:10457000FBF7D8FD08902599FBF72CFE4FF0804102
:104580000990FBF759FE0B90C54880680490C64817
:10459000406803900499FBF7C5FD05902399FBF74C
:1045A00019FE079026988068BC490590FBF712FE1B
:1045B00006900799FBF7B6FD08902599FBF70AFED0
:1045C0004FF080410990FBF737FE0C900C980146A4
:1045D00007901598FBF7FEFD09900B980146059092
:1045E0001698FBF7F7FD07900A9801460490179874
:1045F000FBF7F0FD05901899FBF7E9FD0690079988
:10460000FBF7E2FD08900999FBF7DEFD28990860A9
:104610000B98014607901598FBF7DCFD09900C9864
:10462000014605901698FBF7D5FD07900A980146BC
:1046300004901898FBF7CEFD05901799FBF772FDD3
:1046400006900799FBF76EFD08900999FBF7BCFDF2
:10465000289948600A98014607901598FBF7BAFD1B
:1046600009900C98014604901798FBF7B3FD06904B
:104670000B98014604901898FBF7ACFD059006993D
:10468000FBF7A2FD07901699FBF74CFD08900999DE
:10469000FBF748FD289988600A980146069016980D
:1046A000FBF798FD08900B98014604901798FBF7CC
:1046B00091FD06900C98014604901898FBF78AFD2E
:1046C00005900699FBF72EFD07900899FBF77CFDF6
:1046D00009901599FBF726FD2899C8602898C068AD
:1046E00006902898C06805900699FBF773FD08901E
:1046F0002898806804902898806803900499FBF7B4
:1047000069FD0690289840680290289840680190BA
:104710000299FBF75FFD04902898006802902898A2
:10472000006801900299FBF755FD03900499FBF78F
:10473000F9FC05900699FBF7F5FC07900899FBF743
:10474000F1FC099003F05AF813902898006809903A
:104750001399FBF771FD2899086028984068099023
:104760001399FBF769FD289948602898806809909B
:104770001399FBF761FD289988602898C068099013
:104780001399FBF759FD2899C8604FF08040209994
:10479000FBF720FD02904FF080401E99FBF71AFDB9
:1047A00001900299FBF710FD0390FBF7D7FECDE9CE
:1047B000040102F097FA81F000414FF0C0423B4BF8
:1047C000CDE90601FBF71DFECDE90801FBF7D9FE97
:1047D000289908654FF080401D99FBF7FBFC059078
:1047E0004FF040401F99FBF7F5FC04900599FBF74B
:1047F000EBFC4FF07E510690FBF794FC08904FF0D5
:1048000080402199FBF7E6FC06904FF080401C9910
:10481000FBF7E0FC05900699FBF784FC07900899EC
:1048200002F0E4FB80F0004021490990FBF7D2FC44
:104830002899C8644FF080401B99FBF7CBFC05908A
:104840004FF040401D99FBF7C5FC04900599FBF71C
:10485000BBFC4FF07E510690FBF764FC08904FF0D4
:1048600080401999FBF7B6FC06904FF080401A99EA
:10487000FBF7B0FC05900699FBF754FC07900899EC
:1048800002F0B4FB80F0004009490990FBF7A2FC5C
:104890002899486529B000BDC400002035FA8E3C37
:1048A000E4080020CC000020D400002066A64C4084
:1048B0003333654210B518480068047A022C01D0E1
:1048C000042C05D1FEF7A8FD13480068047A1CE00B
:1048D000062C19D110480068407805280ED10E48E2
:1048E0000068007800F07F0040B90B490968C8787B
:1048F00001F028FA09490968086A804708490968E7
:1049000088688047082400E00824034909680C727D
:1049100001F060F810BD0000840500209005002023
:104920008805002010B50F480088FBF7E5FD044618
:104930000D4801682046FBF741FE02D2FDF70AFB55
:1049400001E0FDF7FFFA07480088401C80B20549E6
:10495000088006490988884202DB00200149088056
:1049600010BD00000E0100200801002004010020FD
:1049700038B504462148007830B1012817D0022804
:104980001ED0032836D128E01D48007828B940F20F
:10499000DC51204602F0D8FC08E04FF4FA706423A2
:1049A0001A4602210090204602F062FD23E000201A
:1049B000C8231A4601210090204602F059FD1AE052
:1049C000002064231A4606210090204602F050FD84
:1049D00010B10020094908700DE0002064231A4638
:1049E0000C210090204602F043FD10B10020034945
:1049F000087000E000BF00BF38BD00000C010020BF
:104A0000EC0000202DE9FE4F06460F4615461C46D9
:104A100028462168FBF7D8FB124902903046FBF785
:104A2000D9FB39460090FBF7D5FB014601904FF0CA
:104A30007E50FBF701FC83464FF07E51FBF772FB83
:104A4000824651464FF07E50FBF7F6FB81460299B5
:104A5000FBF7C0FB80462168FBF764FB2060BDE8E4
:104A6000FE8F0000C3F5C8400548817A19B10521C1
:104A7000044A116002E00121024A116070470000FF
:104A8000441000208C06002010B51748008A401CF6
:104A9000154908820846C088401C00B2C8800846F4
:104AA0000089401C00B2088108464089401C00B2C1
:104AB000488108468089401C00B288810846C08928
:104AC000401C00B2C88108460078022804DB084672
:104AD0004088401C488004E003480078401C02499C
:104AE0000870FFF71FFF10BD9806002010B573482F
:104AF000407800286CD072480088401C70490880BB
:104B0000704800696D49B1F90A1008446D4908619F
:104B10000846C1686948B0F90C0008446949C86092
:104B2000084641696548B0F90E0008446549486186
:104B3000084680696149B1F94810084461498861B3
:104B40005F480088322843DB0869FBF7CCFC044649
:104B50005D49FBF771FB5D49C1F813005949C8680D
:104B6000FBF7C1FC04465849FBF766FB5749C1F8FF
:104B7000170054494869FBF7B6FC04465249FBF755
:104B80005BFB5249C1F81B004E488069322190FB03
:104B9000F1F42046FBF7A7FC4C49C86200204849C5
:104BA000088046484078012801D1FDF74FFA0020DF
:104BB000424948700220464908700120487002208E
:104BC0004449087000203F4988614861C860086115
:104BD0003A480078012870D13F480088401C3E497F
:104BE0000880384800683549B1F90410084435494F
:104BF0000860084641683148B0F906000844314968
:104C00004860084681682D48B0F9080008442D49DD
:104C10008860084680692949B1F948100844294943
:104C200088612D480088322847DB08460068322119
:104C300090FBF1F42046FBF756FC2449C1F807002D
:104C400020484068322190FBF1F42046FBF74BFCF2
:104C50001E49C1F80B001B488068322190FBF1F41B
:104C60002046FBF740FC1949C1F80F000B46D3F86A
:104C70000F20D3F80B10D3F8070002F057FD1148AE
:104C80008069322190FBF1F42046FBF72CFC0F49A0
:104C900008630020104908800849087001200C4969
:104CA00008704870FDF7D2F903200A490870002007
:104CB0000449886188604860086010BD8C0B002042
:104CC0001E010020DC0B002000004842F0080020FC
:104CD000900900200C0100201C0100202DE9F0416A
:104CE0008AB0074600F038FAFFF700FFC94840785D
:104CF000C849097840EA012000B2C7498880C54800
:104D0000C078C449897840EA012001B2C248C18014
:104D1000C0484079BF49097940EA012001B2BE4844
:104D20000181BC48407ABB49097A40EA012000B2BF
:104D3000B9494881B748C07AB649897A40EA012022
:104D400001B2B5488181B348407BB249097B40EA52
:104D5000012001B2B048C181AE48C079AD4989791E
:104D600040EA012000B2AC49A1F84800B1F948007E
:104D7000FBF7B9FB0546A949FBF75EFA0446A849CB
:104D8000FBF7D0F9A449C864A6488079A0BBB1F963
:104D90000400FBF7A8FB0546A248D0F807102846F8
:104DA000FBF712FA0446FBF7ACFB04909A49B1F901
:104DB0000600FBF798FB05469A48D0F80B102846EA
:104DC000FBF702FA0446FBF79CFB05909249B1F908
:104DD0000800FBF788FB06469248D0F80F103046D3
:104DE000FBF7F2F905464FF08B41FBF79BF90446C0
:104DF000FBF787FB06904CE0FFE78A4880790128A3
:104E000044D18549B1F90400FBF76DFB064685489E
:104E1000D0F807103046FBF7D7F905464FF0804130
:104E2000FBF7D8F90446FBF76CFB04907A49B1F91B
:104E30000600FBF758FB06467A48D0F80B103046C0
:104E4000FBF7C2F905464FF08041FBF7C3F9044672
:104E5000FBF757FB05907049B1F90800FBF743FBDE
:104E600080467048D0F80F104046FBF7ADF9064673
:104E70004FF08A41FBF756F905464FF08041FBF7AA
:104E8000A9F90446FBF73DFB069002E001206249C8
:104E900008706149B1F90A00FBF725FB0546614836
:104EA000D0F813102846FBF78FF90446FBF729FBCF
:104EB00008905949B1F90C00FBF715FB0546594814
:104EC000D0F817102846FBF77FF90446FBF719FBCB
:104ED00007905149B1F90E00FBF705FB0546514813
:104EE000D0F81B102846FBF76FF90446FBF709FBC7
:104EF0000990049828234C4A194600904B4802F028
:104F00000BFD059828234A4A19460090494802F0AB
:104F100003FD06982823484A19460090474802F0A6
:104F2000FBFC08980523464A19460090454802F0C4
:104F3000F3FC07980523444A19460090434802F0C1
:104F4000EBFC09980523424A19460090414802F0BB
:104F5000E3FC39498868FBF7C6FA04463449886897
:104F6000FBF7C1FA054630498868FBF7BCFA0646EC
:104F700029491831081F021F2346CDE9002002915C
:104F80002A463146002002F07DFC31498868FBF753
:104F9000AAFA04462C498868FBF7A5FA0546284971
:104FA0008868FBF7A0FA06461B483030011F0A1F2D
:104FB0002346CDE9002102902A463146002002F026
:104FC00061FC1549886A2449FBF704F912494863D2
:104FD000C86A2149FBF7FEF80F498863086B1E4930
:104FE000FBF7F8F80C49C86308691C49FBF7F2F8AD
:104FF0000949C86148691949FBF7ECF80649086294
:1050000088691649FBF7E6F8034948620AB0BDE82B
:10501000F08100007C0B00208C0B00200000AA43D4
:1050200000001242F0080020100C0020880C002024
:10503000240C0020280D0020380C0020C80D002072
:105040004C0C0020680E0020600C00207C0E00201C
:10505000740C0020900E0020FD007A3D9B2019402A
:105060007047000070B504460125FFF7F9FF2A2CB0
:1050700015D006DC052C0CD00A2C0CD0142C16D123
:105080000BE0622C0DD0BC2C0DD0B4F5807F0ED17E
:105090000BE006250DE005250BE0042509E00325BE
:1050A00007E0022505E0012503E0002501E00425D5
:1050B00000BF00BFFEF742FE0A20FEF7B7FB8022CA
:1050C0006B216820FEF79AFF0A20FEF7AFFB002253
:1050D0006B216820FEF792FF0A20FEF7A7FB002055
:1050E00000F08EF80A20FEF7A1FB032000F03EF846
:1050F0000A20FEF79BFB40F24D1000F08AF80A20D0
:10510000FEF794FB032000F057F80A20FEF78EFB11
:10511000022000F03FF80A20FEF788FBE8B200F01A
:105120002FF80A20FEF782FB002000F060F80A202A
:10513000FEF77CFB012000F051F80A20FEF776FB19
:10514000044B012275216820FEF71EFF0A20FEF79E
:105150006DFB70BD1801002010B5034B0E223B21E2
:105160006820FEF711FF10BD7C0B002038B5044607
:10517000032302226B2168200094FEF77FFF38BDD5
:1051800038B50446032302221A2168200094FEF752
:1051900075FF38BD38B50446022304221C2168205F
:1051A0000094FEF76BFF0020032307221C210090D0
:1051B0006820FEF763FF38BD38B504460223042299
:1051C0001B2168200094FEF759FF002003230722CB
:1051D0001B2100906820FEF751FF38BD10B5044632
:1051E0002346012237216820FEF727FF10BD10B5A6
:1051F0000446234605226A216820FEF71EFF10BDE3
:1052000010B50446234606226B216820FEF715FFE1
:1052100010BD70B504464FF47A7090FBF4F0401E58
:10522000C5B22A4619216820FEF7E8FE70BD704716
:105230002DE9F04107460D461646FCF71BFF3846A0
:10524000FCF77AFF8046002405E00020FCF774FF9D
:105250002855601CC4B2B442F7DBFCF701FF40469E
:10526000BDE8F08170B50446FCF704FF2046FCF76A
:1052700063FF0020FCF760FF0546FCF7F1FE2846BF
:1052800070BD2DE9F04107460D461646FCF7F2FECB
:105290003846FCF751FF8046002404E0285DFCF707
:1052A0004BFF601CC4B2B442F8DBFCF7D9FE4046A9
:1052B000BDE8F08170B505460C46FCF7DBFE2846DC
:1052C000FCF73AFF06462046FCF736FFFCF7C8FE1F
:1052D000304670BD70B5002100230F22C47804B39E
:1052E000154C246804F4E064C4F5E064210AC1F1BB
:1052F0000403CA40447804FA03F18478144021433B
:1053000009010E4C0678A155047804F01F0501240C
:10531000AC4005786D11AD0005F1E025C5F8004100
:1053200009E0047804F01F050124AC40044D067820
:10533000761145F8264070BD0CED00E000E400E079
:1053400080E100E002490143024A11607047000019
:105350000000FA050CED00E070B502264A4800682E
:10536000447849480068007800F07F0000284AD15E
:10537000092C03D100F0F2FF064665E0052C14D19C
:1053800041480068C0787F280BDC3F48006880787F
:1053900038B93D480068808818B93B480068807A71
:1053A00008B108256BE000264EE0032C14D13648E6
:1053B0000068C07801280DD133480068808848B95A
:1053C00031480068407A00F0200018B100F0EAFF90
:1053D000064639E0022637E0012C35D12A4800681C
:1053E000C07801280DD128480068808848B926482F
:1053F0000068407A00F0200018B100F04BFE06462D
:1054000022E0022620E020480068007800F07F00BB
:10541000012805D10B2C17D101F038F8064613E00E
:1054200019480068007800F07F0002280BD1012C99
:1054300003D100F02FFE064606E0032C04D100F055
:10544000C5FF064600E002264EB1E0B20F4A1268E0
:10545000516988470646032E01D109250FE00EB198
:1054600008250CE0062500210948006880B2801C50
:10547000084A42F8101030200749088000BF02494E
:1054800009680D7270BD00008405002088050020A9
:10549000505C004000600040960500201CB50522CD
:1054A0000E493020FFF7EDFE052269461020FFF778
:1054B000BFFE002408E01DF804000849095D884289
:1054C00000D003E0601CC4B2052CF4DB00BF052C47
:1054D00001D101201CBD0020FCE700004805002090
:1054E00070B504460D464FF480713A48FEF79EFBB6
:1054F000052239492A20FFF7C4FE0522374930200A
:10550000FFF7BFFE01212120FFF7D4FE0121222059
:10551000FFF7D0FE1A212420FFF7CCFE29462520D4
:10552000FFF7C8FE0F212620FFF7C4FE012C08D18B
:1055300020213120FFF7BEFE0F212020FFF7BAFE09
:1055400041E0022C08D120213120FFF7B3FE0E21CB
:105550002020FFF7AFFE36E0032C1AD1FF21E12017
:10556000FFF7A8FEFF21E220FFF7A4FE0F21202075
:10557000FFF7A0FE5020FCF7DFFD7320FCF7DCFDF9
:1055800001213C20FFF796FE06213D20FFF792FE09
:1055900019E00E212020FFF78DFEFF21E120FFF70B
:1055A00089FEFF21E220FFF785FE5020FCF7C4FDB5
:1055B0007320FCF7C1FD01213C20FFF77BFE062193
:1055C0003D20FFF777FE4FF480710248FEF730FB75
:1055D00070BD0000000801404D0500204805002076
:1055E00070B50720FFF73EFE044604F0400090B17E
:1055F0006020FFF737FE0546212D07DA2A460D49C0
:105600006120FFF715FE01F0ADFD03E0FF21E22070
:10561000FFF750FE00BF04F0100030B104F00100AD
:1056200018B1FF21E120FFF745FE21462720FFF7B3
:1056300041FE70BD0410002010B511480068047AC6
:10564000032C01D0052C05D1FDF746FF0C4800685E
:10565000047A0EE0072C05D10A490968C86880471A
:10566000082406E0022C01D0042C01D1082400E01B
:105670000824034909680C7200F0ACF910BD000061
:10568000840500208805002070B504460D460A48B0
:10569000008820B108480088401C0749088094FB16
:1056A000F5F005490988884204DCFCF7CFFC0020AE
:1056B0000149088070BD0000DC0000202DE9FF4F8B
:1056C00089B0814692461E46DDE91747169D0021A6
:1056D0006869FAF773FF01D2002009E04FF07E51AC
:1056E0006869FAF775FF02D24FF07E5000E06869F2
:1056F000686100214846FAF761FF01D1002004E00B
:1057000049464FF07E50FAF797FD07903046A16862
:10571000FAF75AFD5E490690FAF75CFD8346079951
:10572000FAF758FDE06031465046FAF74DFD20602B
:1057300000214846FAF742FF01D1002004E0494623
:105740004FF07E50FAF778FD8346D4E90001FAF76E
:105750003BFD59460790FAF73DFD2061E168E86896
:10576000FAF738FD83462169A868FAF733FD5946F0
:105770000790FAF7D7FC804646482969FAF72AFDD0
:105780008346FAF7BEFE00B238B340466169FAF7C5
:105790001BFD069040492869FAF71CFD4946029016
:1057A000FAF718FD014603904FF07E50FAF744FDDA
:1057B0004FF07E510490FAF7B5FC834659464FF0FE
:1057C0007E50FAF739FD05900699FAF703FD079028
:1057D0006169FAF7A7FC606101E000206061E1689F
:1057E000E868FAF7F7FC06902168FAF79BFC834615
:1057F0004946FAF7EFFC0790A169FAF793FCA0611C
:1058000087F0004B5846A169FAF7E2FE02D287F012
:10581000004007E03946A069FAF7DAFE01D23846BF
:1058200000E0A069A061A1696868FAF7D3FC07905D
:105830004FF07E506969FAF7C7FC41460490FAF7C9
:10584000C9FC834661696869FAF7C4FC0490216861
:105850002868FAF7BFFC0290A8690A99FAF7BAFC1F
:1058600001900299FAF75EFC03900499FAF75AFC4A
:1058700059460590FAF756FC06900799FAF752FC3C
:105880000890A6602068606008980DB0BDE8F08FB1
:10589000000080BF0000C842C3F54840F0B5561C68
:1058A0007510074E06EB41042B4605E034F8047BE7
:1058B00020F8017B401C5B1E002BF7D1F0BD0000DF
:1058C0000060004008B50121052000F0E3F8012147
:1058D0000C2000F0EFF80320ADF8000018208DF840
:1058E000030003208DF8020069460548FEF7CBF857
:1058F000C020ADF8000069460248FEF7C4F808BDB4
:1059000000080140000C014010B588B0002440F2AE
:10591000E730ADF818002C4800682C49B0FBF1F0D6
:10592000401E84B2ADF814400020ADF81A00ADF866
:10593000160005A94FF0804000F002FF05A9244899
:1059400000F0FEFE6020ADF804000120ADF8060076
:105950000020ADF80A00ADF80C0001A94FF080401E
:1059600000F038FE01A91A4800F034FE0821C806EC
:1059700000F07CFE0821164800F078FE0020ADF80B
:105980000A0001A94FF0804000F07AFE01A91048FA
:1059900000F076FE0821C80600F0C4FE08210C487D
:1059A00000F0C0FE0121880700F0FCFD012108483D
:1059B00000F0F8FD0121880700F000FE01210448F5
:1059C00000F0FCFD08B010BD5405002000366E014B
:1059D0000008004010B50D4890F82C10002000F091
:1059E000E9F90B480068007A082805D14002094906
:1059F000088010200849088005480068007A0928B6
:105A000001D1012010BD0020FCE70000F8050020B6
:105A100084050020940500209605002010B5012083
:105A200001F03AF801240B48046000200A4908807C
:105A300008460088074908600020091D08604FF4E7
:105A4000E0500549088008460088024908600020A7
:105A500010BD0000405C00408E0500200146002083
:105A6000034A506820F440400843506070470000EB
:105A70000010024029B1064A52690243044B5A61A0
:105A800004E0034A52698243014B5A6170470000A7
:105A90000010024029B1064AD2690243044BDA6180
:105AA00004E0034AD2698243014BDA617047000087
:105AB0000010024029B1064A92690243044B9A61E0
:105AC00004E0034A92698243014B9A6170470000E7
:105AD0000010024030B500210022002400232D4D8B
